:100000000C94D4040C94361E0C945D1E0C94FC04C9
:100010000C94FC040C9463180C94FC040C94FC04E5
:100020000C94FC040C94FC040C94FC040C94FC0450
:100030000C94FC040C94EE1D0C94FC040C94FC0435
:100040000C94841E0C94FC040C943E210C9470219E
:100050000C94FC040C94FC040C94FC040C94FC0420
:100060000C94FC040C94FC0444454255472043582E
:10007000004445425547207374617465436F6F6C4B
:10008000446F776E00444542554720737461746530
:10009000486561744379636C65456E7465720044AC
:1000A000454255472045786974696E6720737461CD
:1000B00074655475726E4F6E446C622E00444542F6
:1000C000554720456E746572696E6720737461745C
:1000D000655475726E4F6E446C622E0044454255F5
:1000E0004720535800444542554720737461746556
:1000F0005374616E646279456E7465720044454262
:10010000554720496E76616C696420696E7075741C
:100110002C206F6E6C792064696769747320657830
:100120007065637465643A20004445425547204930
:100130006E76616C696420696E7075742C206F6EC8
:100140006C7920646967697473206578706563747D
:1001500065643A2000444542554720756E6B6E6FCA
:10016000776E20636F6D6D616E6420726563656983
:100170007665643A20002000200020004445425566
:100180004720756E6B6E6F776E20636F6D6D616E5D
:100190006420726563656976656420666F72207499
:1001A00068652027472720636F6D6D616E643A2074
:1001B00000555247200055464720004445425547C8
:1001C0002043616E6E6F7420736574205049442023
:1001D0006761696E20617420746869732074696D49
:1001E000652E0044454255472043616E6E6F742072
:1001F00073657420504944206761696E2C206E6FCE
:100200007420656E6F7567682063686172616374DE
:10021000657273004445425547204572726F7220E3
:1002200073657474696E67205049442076616C75FB
:10023000652E00556E6B6E6F776E206761696E205C
:10024000706172616D657465722E00444542554758
:1002500020756E6B6E6F776E20504944206C6F6313
:100260006174696F6E0044454255472043616E6E6C
:100270006F74207365742074696D65207065726990
:100280006F6420617420746869732074696D652ED1
:100290000044454255472043616E6E6F742073657C
:1002A000742074696D6520706572696F642C206EAE
:1002B0006F7420656E6F7567682063686172616333
:1002C0007465727300444542554720496E76616CEF
:1002D00069642074696D6520626173652073656C63
:1002E00065637465642E00444542554720496E7627
:1002F000616C69642074696D65206D756C746970DA
:100300006C6965723A2000444542554720496E7633
:10031000616C69642074696D65206D756C746970B9
:100320006C6965723A2000444542554720496E7613
:10033000616C6964206865617465722073656C65C1
:10034000637465643A200055706461746564206468
:10035000757479206379636C6520706172616D6575
:100360007465722E00444542554720536574746984
:100370006E67206F66662070657263656E742E000E
:1003800044454255472053657474696E67206F6E0B
:100390002070657263656E742E0044454255472097
:1003A000496E76616C69642068656174657220735A
:1003B000656C65637465643A200044454255472086
:1003C00053657474696E672075707065722073650B
:1003D00074706F696E742E00444542554720536512
:1003E0007474696E67206C6F7765722073657470C2
:1003F0006F696E742E00444542554720756E6B6ED2
:100400006F776E20636F6D6D616E642072656365DA
:100410006976656420666F7220746865202770278E
:1004200020636F6D6D616E643A20006E54696D6576
:100430007320002062756766697820002E005620C0
:100440000044454255472050697A7A61206F7665AD
:100450006E2073746F702072657175657374656456
:100460002E0044454255472050697A7A61206F76C4
:10047000656E207374617274207265717565737432
:1004800065642E00444542554720636F6D6D616E73
:100490006420696E70757420627566666572206589
:1004A000786365656465642E00444542554720497C
:1004B0006E697469616C697A6174696F6E20636FCB
:1004C0006D6C6574652E0044454255472052656148
:1004D00064696E6720706172616D65746572732006
:1004E00066726F6D20454550524F4D206D656D6FA2
:1004F00072792E00444542554720496E69746961FE
:100500006C697A696E6720656D7074792045455015
:10051000524F4D206D656D6F72792E0044454255E6
:1005200047205374617274696E672070697A7A61CA
:10053000206F76656E2E2E2E002000506964444395
:10054000200020002000200052656C61797320009B
:10055000537461746520436F6F6C646F776E0053E2
:100560007461746520436F6F6B696E6700537461CB
:10057000746520444C420053746174652053746167
:100580006E64627900200020002000200054656D18
:1005900070732000204C32444C422000506F77652D
:1005A0007220004445425547204368616E67696E7A
:1005B0006720746865207374617465206F662074A9
:1005C000686520636F6F6C696E672066616E2E00D0
:1005D00000002110422063308440A550C660E770BF
:1005E000088129914AA16BB18CC1ADD1CEE1EFF167
:1005F0003112100273325222B5529442F772D6620F
:10060000399318837BB35AA3BDD39CC3FFF3DEE3B6
:100610006224433420040114E664C774A44485545E
:100620006AA54BB528850995EEE5CFF5ACC58DD506
:100630005336722611163006D776F6669556B446AE
:100640005BB77AA719973887DFF7FEE79DD7BCC756
:10065000C448E5588668A7784008611802282338FE
:10066000CCC9EDD98EE9AFF9488969990AA92BB9A6
:10067000F55AD44AB77A966A711A500A333A122A4E
:10068000FDDBDCCBBFFB9EEB799B588B3BBB1AABF6
:10069000A66C877CE44CC55C222C033C600C411C9E
:1006A000AEED8FFDECCDCDDD2AAD0BBD688D499D46
:1006B000977EB66ED55EF44E133E322E511E700EEE
:1006C0009FFFBEEFDDDFFCCF1BBF3AAF599F788F96
:1006D0008891A981CAB1EBA10CD12DC14EF16FE176
:1006E0008010A100C230E3200450254046706760AE
:1006F000B9839893FBA3DAB33DC31CD37FE35EF3C6
:10070000B1029012F322D2323542145277625672FD
:10071000EAB5CBA5A89589856EF54FE52CD50DC515
:10072000E234C324A014810466744764245405444D
:10073000DBA7FAB79987B8975FE77EF71DC73CD765
:10074000D326F2369106B01657667676154634569D
:100750004CD96DC90EF92FE9C899E9898AB9ABA9B5
:100760004458654806782768C018E1088238A328ED
:100770007DCB5CDB3FEB1EFBF98BD89BBBAB9ABB05
:10078000754A545A376A167AF10AD01AB32A923A3D
:100790002EFD0FED6CDD4DCDAABD8BADE89DC98D55
:1007A000267C076C645C454CA23C832CE01CC10C8D
:1007B0001FEF3EFF5DCF7CDF9BAFBABFD98FF89FA5
:1007C000176E367E554E745E932EB23ED10EF01EDD
:1007D000000000000000A0410000C84100002042CD
:1007E000000070420000A0420000C8420000F04239
:1007F00000000C4300002043000034430000484345
:1008000000005C43000070430000824300008C4302
:10081000000096430000A0430000AA430000B44338
:100820000000BE430000C8430000D2430000DC4388
:100830000000E6430000F0430000FA4300000244D9
:100840000000074400000C4400001144000016445E
:1008500000001B44000020440000254400002A44FE
:1008600000002F44000034440000394400003E449E
:10087000000043440000484400004D44000052443E
:100880000000574400005C4400006144A69B443BC8
:10089000CDCCCC3D0000003ECDCC4C3EAC1C9A3EB5
:1008A000F2D2CD3E2506013F48E11A3FE17A343FBE
:1008B00068914D3FF0A7663F77BE7F3F7F6A8C3FD0
:1008C0008716993F8FC2A53F21B0B23FB29DBF3F6F
:1008D00008ACCC3F5EBAD93FB4C8E63FCFF7F33F90
:1008E000D7A30040643B074054E30D40448B1440C1
:1008F00033331B4023DB214075932840643B2F405A
:10090000B6F33540A69B3C409643434085EB4940B7
:1009100075935040022B57408FC25D401D5A644072
:1009200048E16A40736871409EEF774066667E409A
:10093000986E8240CBA18540CDCC8840CFF78B40CC
:10094000D1228F40A2459240000000080002010021
:10095000000304070000000000000000010204087A
:100960001020408001020408102001020408102019
:100970000404040404040404020202020202030345
:1009800003030303000000002300260029000000E9
:100990000000250028002B00000000002400270094
:1009A0002A00DE13D81CA02111241FBECFEFD8E0EF
:1009B000DEBFCDBF12E0A0E0B1E0E2E6FEE402C09F
:1009C00005900D92A433B107D9F724E0A4E3B2E077
:1009D00001C01D92AB37B207E1F719E0C8EAD9E0D0
:1009E00004C02297FE010E941527C23AD107C9F719
:1009F0000E9499240C942F270C940000FC01718311
:100A0000608353834283358324830895DC01ED9111
:100A1000FC91309709F009940895DC011296ED914C
:100A2000FC911397309709F009940895DC0114960E
:100A3000ED91FC911597309709F009940895FC0108
:100A400081E080837483638372836183158216825D
:100A5000178210860895CF93DF93EC017C836B831C
:100A60000E94CE1E6D837E838F839887CE01DF9197
:100A7000CF9108950F931F93CF93DF93EC018B01D8
:100A800089819A810E9416051C830B831A8309832E
:100A9000C8010E9406050E94CE1E6D837E838F834F
:100AA0009887CE01DF91CF911F910F910895CF9339
:100AB000DF93EC01288189819A81222321F00E9411
:100AC000060518820CC06B817C818617970719F088
:100AD000CE010E943A0589819A810E940D05CE01BE
:100AE000DF91CF91089541E0FC01218132816217AD
:100AF000730709F040E0842F08952F923F924F92A0
:100B00005F926F927F928F929F92AF92BF92CF929D
:100B1000DF92EF92FF920F931F93CF93DF93CDB7A6
:100B2000DEB72B970FB6F894DEBF0FBECDBF9B8705
:100B30008A87FC01E05CFF4F80818983811102C0BC
:100B40001982F6C00E94CE1E6A837B838C839D83AC
:100B5000EA85FB8580A191A1A2A1B3A14A815B8115
:100B60006C817D81481B590B6A0B7B0B84A995A96D
:100B7000A6A9B7A9481759076A077B0708F3028C8B
:100B8000F38DE02D80809180A280B380AA85BB8503
:100B90005E96ED91FC915F97A50194016081718152
:100BA000828193810E94A8242B013C01EA85FB8568
:100BB00020893189428953890E946026AA85BB8594
:100BC00098962D913D914D915C919B970E94A924FF
:100BD0006B017C01EA85FB8560A771A782A793A7BB
:100BE00014AD05AD36AC27AC212F302F432D522D3F
:100BF0000E945C2618162CF4812F902FA32DB22D65
:100C000018C0AA85BB85D8968D919D910D90BC91F9
:100C1000A02D8E839F83A887B9879C01AD01C70152
:100C2000B6010E940D2587FF0AC08E819F81A8858D
:100C3000B985EA85FB8580A791A7A2A7B3A7AA8556
:100C4000BB8594962D913D914D915C919797C501EF
:100C5000B4010E94A824EA85FB8524893589468948
:100C600057890E9460266B017C01AA85BB859C96F2
:100C70006D937D938D939C939F971C962D913D91A1
:100C80004D915C911F97C301B2010E946026EA85D5
:100C9000FB8560AB71AB82AB93AB20A531A542A5C0
:100CA00053A50E94A924A70196010E94A8246B01C4
:100CB0007C01212F302F432D522D0E945C261816C7
:100CC000DCF0AA85BB85D8961C91D897D9960C9153
:100CD000D997DA963C90DA97DB962C90212F302F1B
:100CE000432D522DB601C7010E940D2587FD04C07A
:100CF0001C2D0D2D3E2C2F2CAA85BB855C96ED91CD
:100D0000FC915D97812F902FA32DB22D808391832D
:100D1000A283B383EA85FB8584A295A2A6A2B7A28B
:100D20008A819B81AC81BD8180A391A3A2A3B3A33F
:100D300089812B960FB6F894DEBF0FBECDBFDF9131
:100D4000CF911F910F91FF90EF90DF90CF90BF90C8
:100D5000AF909F908F907F906F905F904F903F905B
:100D60002F9008952F923F924F925F926F927F92B1
:100D70008F929F92AF92BF92CF92DF92EF92FF92AB
:100D80000F931F93CF93DF9300D000D0CDB7DEB782
:100D90001C012A013B014801590120E030E0A90172
:100DA000C301B2010E940D2587FD78C020E030E02C
:100DB000A901C501B4010E940D2587FD6FC020E087
:100DC00030E0A901C701B6010E940D2587FD66C06C
:100DD000F101408251826282738284829582A6826E
:100DE000B782C086D186E286F38664A975A986A9F2
:100DF00097A90E94AA2520E030E04AE754E40E9427
:100E0000112569837A838B839C83F10144865586FF
:100E1000668677869B01AC01C501B4010E946026FD
:100E20004B015C01F101608B718B828B938B29816B
:100E30003A814B815C81C701B6010E9411256B018B
:100E40007C01F101648B758B868B978B808D918DE6
:100E5000019721F5A301920160E070E0CB010E94AF
:100E6000A824F1016487758786879787A501940177
:100E700060E070E0CB010E94A824F101608B718BCF
:100E8000828B938BA701960160E070E0CB010E94FA
:100E9000A824F101648B758B868B978B0F900F9034
:100EA0000F900F90DF91CF911F910F91FF90EF90D6
:100EB000DF90CF90BF90AF909F908F907F906F907A
:100EC0005F904F903F902F9008958F929F92AF9296
:100ED000BF92CF92DF92EF92FF92CF93DF93EC011C
:100EE00016161706ACF56B01EE24D7FCE094FE2C29
:100EF000C701B6010E94AC254B015C016CA97DA91C
:100F00008EA99FA90E94AA259B01AC01C501B4012D
:100F10000E9411254B015C019B01AC016889798914
:100F20008A899B890E946026688B798B8A8B9B8B30
:100F3000A50194016C897D898E899F890E94112564
:100F40006C8B7D8B8E8B9F8BCCAADDAAEEAAFFAA21
:100F5000DF91CF91FF90EF90DF90CF90BF90AF9057
:100F60009F908F9008952F923F924F925F926F9231
:100F70007F928F929F92AF92BF92CF92DF92EF9229
:100F8000FF920F931F93CF93DF931C016A017B01A4
:100F900048015901A9019801C701B6010E945C26C8
:100FA00087FF52C0F101C0AED1AEE2AEF3AE84AE67
:100FB00095AEA6AEB7AEE05CFF4F8081882309F402
:100FC00043C0F101C48DD58D488059806A807B80F3
:100FD000A5019401C301B2010E945C2618162CF4ED
:100FE00088829982AA82BB820CC0A7019601C301A4
:100FF000B2010E940D2587FF04C0C882D982EA820F
:10100000FB82F10180A491A4A2A4B3A4C4ACD5AC8A
:10101000E6ACF7ACA7019601C501B4010E945C26BD
:10102000F10118166CF0C0ACD1ACE2ACF3ACA70186
:101030009601C501B4010E940D2587FF05C0F1018D
:10104000C0A6D1A6E2A6F3A6DF91CF911F910F9182
:10105000FF90EF90DF90CF90BF90AF909F908F90D8
:101060007F906F905F904F903F902F9008958F9258
:101070009F92AF92BF92CF92DF92EF92FF92CF9367
:10108000DF93EC0120E030E0A901688979898A8941
:101090009B890E940D25811105C018A619A61AA6C4
:1010A0001BA630C0EC8DFD8DC080D180E280F38026
:1010B000C8A6D9A6EAA6FBA6EA8DFB8D8081918100
:1010C000A281B3818CA39DA3AEA3BFA38CAC9DAC26
:1010D000AEACBFACA5019401C701B6010E945C266D
:1010E000181664F088AC99ACAAACBBACA50194010D
:1010F000C701B6010E940D2587FF04C088A699A6E6
:10110000AAA6BBA6DF91CF91FF90EF90DF90CF9082
:10111000BF90AF909F908F9008951F93CF93DF93D0
:1011200011E06130710509F010E0EC01C05CDF4FA7
:10113000288131E02327121302C00E943708188348
:10114000DF91CF911F9108950F931F93CF93DF935A
:10115000EC018B01FC01E05CFF4F8081882361F191
:10116000888D998D6817790739F12C853D854E85D5
:101170005F8560E070E0CB010E94A8246C877D87CA
:101180008E879F87288939894A895B8960E070E06A
:10119000CB010E94A824688B798B8A8B9B8B2C892E
:1011A0003D894E895F8960E070E0CB010E94A824F0
:1011B0006C8B7D8B8E8B9F8B198F088FDF91CF91DE
:1011C0001F910F9108954F925F926F927F928F922D
:1011D0009F92AF92BF92CF92DF92EF92FF920F93C6
:1011E0001F93CF93DF9300D000D0CDB7DEB74C0173
:1011F00027013801A982BA82CB82DC82FC01558F9B
:10120000448F738F628F378F268FE05CFF4F108281
:10121000FC0110AE11AE12AE13AE80E090E0AFE76D
:10122000B3E484AF95AFA6AFB7AF84E690E0A0E09B
:10123000B0E084AB95ABA6ABB7AB6B8D7C8DC40136
:101240000E94A408CF88D88CE98CFA8C09811A8175
:101250002B813C81B301A201C4010E94B2060E940D
:10126000CE1EF40144A855A866A877A8641975098C
:101270008609970960A371A382A393A30F900F908F
:101280000F900F90DF91CF911F910F91FF90EF90F2
:10129000DF90CF90BF90AF909F908F907F906F9096
:1012A0005F904F900895FC016081718182819381EC
:1012B0000895FC0164817581868197810895FC0100
:1012C00060857185828593850895409124035091AE
:1012D00025036091260370912703E091C401F091EA
:1012E000C50128EE33E0E29FC001E39F900DF29F1D
:1012F000900D1124A0E0B0E0481759076A077B075A
:10130000A0F48091240390912503A0912603B0912D
:1013100027030196A11DB11D8093240390932503FB
:10132000A0932603B093270308C0109224031092C1
:101330002503109226031092270340912003509119
:1013400021036091220370912303E091C201F09187
:10135000C30128EE33E0E29FC001E39F900DF29FAE
:10136000900D1124A0E0B0E0481759076A077B07E9
:10137000A0F48091200390912103A0912203B091C9
:1013800023030196A11DB11D809320039093210397
:10139000A0932203B093230308C01092200310925D
:1013A0002103109222031092230380911E03909137
:1013B0001F030196883E23E0920728F490931F03B1
:1013C00080931E03089510921F0310921E0381E064
:1013D0008093760208956CED70E08EED93E00E94AC
:1013E0005122109229031092280308956FE970E0AA
:1013F0008EED93E00E94512210922903109228034F
:10140000089568E670E08EED93E00E9451221092FC
:10141000290310922803089565E870E08EED93E0AB
:101420000E94512210922403109225031092260349
:10143000109227031092200310922103109222038E
:101440001092230380EA96E8A1E0B0E080935A026C
:1014500090935B02A0935C02B0935D028093520272
:1014600090935302A0935402B093550261E070E050
:1014700088E00E944A1C61E070E089E00E944A1CFA
:10148000109218011092190110921A0110921B016A
:1014900061E070E088EB92E00E948D0810920401F8
:1014A00010920501109206011092070161E070E0B0
:1014B00087E792E00C948D080E94F818882359F071
:1014C00080912803811107C00E94FB18882359F0DE
:1014D00069E373E004C01092280363E373E08AE2D7
:1014E00093E00C942B0508954F925F926F927F9238
:1014F0008F929F92AF92BF92CF92DF92EF92FF9224
:10150000CF93DF93EC01CB01BA018C809D80AE803C
:10151000BF8088829982AA82BB82C884D984EA84E7
:10152000FB84CC82DD82EE82FF822DEC3DEB4DEC24
:1015300058E30E9460262B013C0122EB3AE447E786
:101540005FEBC501B4010E9460269B01AC01C301A1
:10155000B2010E94A9242B013C012DE738E94BEF91
:101560005FE3C701B6010E9460269B01AC01C30185
:10157000B2010E94A9249B01AC01688779878A8700
:101580009B87C501B4010E94A9244B015C01A701FE
:101590009601C701B6010E94A9249B01AC01C501B7
:1015A000B4010E94A924DF91CF91FF90EF90DF90CA
:1015B000CF90BF90AF909F908F907F906F905F90F3
:1015C0004F900895CF92DF92EF92FF920F931F9367
:1015D0000E94CE1E00914E0210914F0220915002A7
:1015E00030915102601771078207930708F466C0B3
:1015F0006B017C01C01AD10AE20AF30A9701860145
:10160000043111052105310508F46EC060934E02C6
:1016100070934F02809350029093510285E10E9493
:10162000DA1CAB01BC0186EB91E00E94740A609366
:10163000B2017093B3018093B4019093B50184E13A
:101640000E94DA1CAB01BC0182E991E00E94740A9D
:1016500060938E0170938F0180939001909391011C
:1016600080E10E94DA1CAB01BC018EE691E00E9491
:10167000740A60936A0170936B0180936C0190937C
:101680006D0181E10E94DA1CAB01BC018AE491E0AA
:101690000E94740A60934601709347018093480149
:1016A0009093490110927202109273021092740288
:1016B0001092750281E080931D0316C0009510956D
:1016C00020953095060F171F281F391F00934E02D3
:1016D00010934F02209350023093510264317105F0
:1016E0008105910508F092CF1F910F91FF90EF9027
:1016F000DF90CF9008958F929F92AF92BF92CF923A
:10170000DF92EF92FF922091A3013091A40180908B
:10171000C4019090C501A12CB12CA8EEB3E00E94A9
:10172000F9266E5C7F4F8F4F9F4F24E6C22ED12C3F
:10173000E12CF12CA70196010E94D726C501B40126
:101740000E94C7266093A7017093A8018093A90106
:101750009093AA012091A5013091A601A8EEB3E0D3
:101760000E94F9266E5C7F4F8F4F9F4FA701960115
:101770000E94D726C501B4010E94C7266093AB0121
:101780007093AC018093AD019093AE0120917F01E5
:1017900030918001A8EEB3E00E94F9266E5C7F4F85
:1017A0008F4F9F4FA70196010E94D726C501B40114
:1017B0000E94C72660938301709384018093850102
:1017C000909386012091810130918201A8EEB3E0CF
:1017D0000E94F9266E5C7F4F8F4F9F4FA7019601A5
:1017E0000E94D726C501B4010E94C72660938701D5
:1017F000709388018093890190938A0120915B0105
:1018000030915C018090C2019090C301A12CB12C59
:10181000A8EEB3E00E94F9266E5C7F4F8F4F9F4F7A
:10182000A70196010E94D726C501B4010E94C726D0
:1018300060935F01709360018093610190936201F6
:1018400020915D0130915E01A8EEB3E00E94F9267F
:101850006E5C7F4F8F4F9F4FA70196010E94D72646
:10186000C501B4010E94C7266093630170936401AF
:101870008093650190936601209137013091380182
:10188000A8EEB3E00E94F9266E5C7F4F8F4F9F4F0A
:10189000A70196010E94D726C501B4010E94C72660
:1018A00060933B0170933C0180933D0190933E0116
:1018B0002091390130913A01A8EEB3E00E94F92657
:1018C0006E5C7F4F8F4F9F4FA70196010E94D726D6
:1018D000C501B4010E94C72660933F017093400187
:1018E0008093410190934201FF90EF90DF90CF9061
:1018F000BF90AF909F908F9008956091AF017091CD
:10190000B0018EE00E944A1C60918B0170918C01A5
:101910008FE00E944A1C60916701709168018AE023
:101920000E944A1C60914301709144018BE00C9429
:101930004A1C1092B0011092AF0110928C011092CB
:101940008B0110926801109267011092440110926D
:1019500043011092B10110928D0110926901109211
:1019600045010E947D0C60E070E088E00E944A1C06
:1019700060E070E089E00C944A1C65EE70E08EED4A
:1019800093E00E94512260E082E00E949A1F0C9432
:10199000990C0E94990C0E94F818882321F08091DC
:1019A000290381115CC020E030E846EB53E46091EC
:1019B00072027091730280917402909175020E947C
:1019C0005C2618160CF440C020E030E846EB53E4E7
:1019D0006091B2017091B3018091B4019091B50111
:1019E0000E945C26181684F120E030E846EB53E4B0
:1019F00060918E0170918F01809190019091910181
:101A00000E945C26181604F120E030E846EB53E40F
:101A100060916A0170916B0180916C0190916D01F0
:101A20000E945C26181684F020E030E846EB53E470
:101A30006091460170914701809148019091490160
:101A40000E945C26181634F463E373E08AE293E0A4
:101A50000E942B05109229031092280308956FE32A
:101A600073E0F4CF6AEC71E08EED93E00E946322A4
:101A70000E94990C60E070E088EB92E00E948D0873
:101A8000109218011092190110921A0110921B0164
:101A900060E070E087E792E00E948D0810920401F8
:101AA000109205011092060110920701109229036D
:101AB000109228030895CF93C82F80916A02811154
:101AC00007C081E09C2F982790934D0280936A0273
:101AD00080914D028C1791F063EA75E08EED93E0F2
:101AE0000E945122CC2319F061E070E002C060E056
:101AF00070E08CE00E944A1CC0934D02CF91089583
:101B00006DEB70E08EED93E00E94512261E082E087
:101B10000E949A1F81E00C945B0D61E770E08EEDEE
:101B200093E00E94512261E082E00E949A1F81E0CE
:101B30000E945B0D0C94990C0E94990C20E030E0FF
:101B40004FEA53E4609172027091730280917402C3
:101B5000909175020E940D2518160CF446C020E0E5
:101B600030E04FEA53E46091B2017091B30180918B
:101B7000B4019091B5010E940D251816B4F120E032
:101B800030E04FEA53E460918E0170918F018091B3
:101B90009001909191010E940D25181634F120E0DA
:101BA00030E04FEA53E460916A0170916B018091DB
:101BB0006C0190916D010E940D251816B4F020E083
:101BC00030E04FEA53E46091460170914701809103
:101BD0004801909149010E940D25181634F080E0CB
:101BE0000E945B0D65E473E00CC00E94F818882326
:101BF00061F080912903882341F0109229036FE35B
:101C000073E08AE293E00C942B050895CF92DF9263
:101C1000EF92FF92CF93DF93EC011A8A198A8881A1
:101C2000882309F446C0AB0160E070E0C984DA841F
:101C3000EB84FC844C155D056E057F05D0F1CD84E9
:101C4000DE84EF84F888C416D506E606F70688F128
:101C5000CC88DD88EE88FF888B89811117C081E0F0
:101C600090E09A8B898B6B817C8180E090E00E9470
:101C7000AA259B01AC01C701B6010E945C2687FD25
:101C800018C081E08B8B1A8A198A13C069817A8106
:101C900080E090E00E94AA259B01AC01C701B6013B
:101CA0000E940D2518162CF01B8A81E090E09A8B7B
:101CB000898BDF91CF91FF90EF90DF90CF900895C7
:101CC0000F931F93FC01128A118A8081882301F1EE
:101CD000AB0160E070E001851285238534854017F3
:101CE000510762077307A0F005851685278530899F
:101CF000041715072607370758F025813681878195
:101D000090852817390720F481E090E0928B818B31
:101D10001F910F910895CF92DF92EF92FF920F9350
:101D20001F930E94CE1E0091340210913502209123
:101D3000360230913702061717072807390770F463
:101D40006B017C01C01AD10AE20AF30A97018601ED
:101D5000073011052105310508F4A0C06093340255
:101D6000709335028093360290933702609124037A
:101D700070912503809126039091270360935E0262
:101D800070935F0280936002909361020091200340
:101D900010912103209122033091230300935602D6
:101DA00010935702209358023093590200915A021F
:101DB00010915B0220915C0230915D026017710707
:101DC00082079307F1F08EE991E00E94600E609126
:101DD0005E0270915F028AE791E00E94600E0E94AD
:101DE0007D0C80915E0290915F02A0916002B091A3
:101DF000610280935A0290935B02A0935C02B093BD
:101E00005D02609156027091570280915802909144
:101E100059020091520210915302209154023091C4
:101E200055026017710782079307F1F086E591E08C
:101E30000E94060E609156027091570282E391E073
:101E40000E94060E0E947D0C8091560290915702CE
:101E5000A0915802B091590280935202909353027C
:101E6000A0935402B09355020E94F818882341F0C1
:101E70000E94FB18882321F080912803882371F0A9
:101E80001092280363E373E08AE293E01F910F91BD
:101E9000FF90EF90DF90CF900C942B051F910F9146
:101EA000FF90EF90DF90CF9008956CE975E08EED94
:101EB00093E00E9421220E94F818682F70E04AE007
:101EC00050E08EED93E00E94202364E975E08EEDF2
:101ED00093E00E9421220E94FB18682F70E04AE0E4
:101EE00050E08EED93E00C9428234F925F926F9216
:101EF0007F928F929F92AF92BF92CF92DF92EF929A
:101F0000FF920F931F93CF93DF9300D000D0CDB7F4
:101F1000DEB780917602882309F470C110927602B0
:101F200020E030E040E05FE36091B2017091B301E6
:101F30008091B4019091B5010E94A9240E947E2550
:101F40002B013C0120E030E040E05FE360918E0136
:101F500070918F0180919001909191010E94A9242C
:101F60000E947E254B015C0120E030E040E05FE311
:101F700060916A0170916B0180916C0190916D018B
:101F80000E94A9240E947E256B017C0120E030E0A4
:101F900040E05FE360914601709147018091480104
:101FA000909149010E94A9240E947E2569837A8329
:101FB0008B839C8382E10E94C1198C016DE875E0DE
:101FC0008EED93E00E9421224AE050E0B2018EEDB6
:101FD00093E00E946B236BE875E08EED93E00E9426
:101FE00021224AE050E0B4018EED93E00E946B2381
:101FF00069E875E08EED93E00E9421224AE050E00E
:10200000B6018EED93E00E946B2367E875E08EEDDC
:1020100093E00E9421224AE050E069817A818EEDAE
:1020200093E00E946B2365E875E08EED93E00E94DB
:1020300021224AE050E0B8018EED93E00E94712326
:102040000E94550F65E473E08AE293E00E947305F5
:10205000882331F067E775E08EED93E00E9451220E
:102060006FE373E08AE293E00E947305882331F006
:102070006DE675E08EED93E00E94512269E373E016
:102080008AE293E00E947305882331F06FE575E0E2
:102090008EED93E00E94512263E373E08AE293E0C5
:1020A0000E947305882331F060E575E08EED93E0C2
:1020B0000E94512268E475E08EED93E00E94212297
:1020C0008EE00E94D01F4AE050E0BC018EED93E00C
:1020D0000E94202366E475E08EED93E00E942122A9
:1020E0008FE00E94D01F4AE050E0BC018EED93E0EB
:1020F0000E94202364E475E08EED93E00E9421228B
:102100008AE00E94D01F4AE050E0BC018EED93E0CF
:102110000E94202362E475E08EED93E00E9421226C
:102120008BE00E94D01F4AE050E0BC018EED93E0AE
:102130000E9428236BE375E08EED93E00E9421223C
:10214000409118015091190160911A0170911B0181
:1021500027E030E08EED93E00E94842469E375E08F
:102160008EED93E00E9421224091040150910501DF
:10217000609106017091070127E030E08EED93E059
:102180000E94862463ED71E08EED93E00E9444226C
:102190004091200350912103609122037091230309
:1021A0002AE030E08EED93E00E9440236AED71E07A
:1021B0008EED93E00E94442240913B0150913C01FE
:1021C00060913D0170913E012AE030E08EED93E098
:1021D0000F900F900F900F90DF91CF911F910F9163
:1021E000FF90EF90DF90CF90BF90AF909F908F9037
:1021F0007F906F905F904F900C9487230F900F907B
:102200000F900F90DF91CF911F910F91FF90EF9062
:10221000DF90CF90BF90AF909F908F907F906F9006
:102220005F904F900895CF93C82F61E00E94611F87
:1022300060E08C2F0E949A1F60E070E08C2FCF919D
:102240000C94AB1B49E050E060E070E08EE991E057
:102250000E949D1A49E050E069E070E08AE791E051
:102260000E949D1A49E050E062E170E086E591E04D
:102270000E949D1A49E050E06BE170E082E391E03A
:102280000E949D1A42E050E064E270E084EC91E02C
:102290000E949D1A42E050E066E270E082EC91E01C
:1022A0000E949D1A4CE050E068E270E08CE191E001
:1022B0000E949D1A4CE050E064E370E088E091E0F9
:1022C0000C949D1A49E050E060E070E08EE991E0E6
:1022D0000E947D1A49E050E069E070E08AE791E0F1
:1022E0000E947D1A49E050E062E170E086E591E0ED
:1022F0000E947D1A49E050E06BE170E082E391E0DA
:102300000E947D1A42E050E064E270E084EC91E0CB
:102310000E947D1A42E050E066E270E082EC91E0BB
:102320000E947D1A4CE050E068E270E08CE191E0A0
:102330000E947D1A4CE050E064E370E088E091E098
:102340000C947D1ACF92DF92EF92FF920F931F931E
:1023500026E040E05BE460E070E08EED93E00E94F8
:10236000DC206CE175E08EED93E00E9451220E942A
:102370004F1A029749F464EF74E08EED93E00E94E7
:1023800051220E94221108C067EC74E08EED93E0A8
:102390000E9451220E9462110E94881880E180935D
:1023A00081001092800021E02093D20380E49FE11D
:1023B0009093D4038093D3039093870080938600F7
:1023C00081E180938100809180008F7780938000ED
:1023D000809180008F7D8093800085E699E09093C6
:1023E000D1038093D00320936F008CE00E941311DF
:1023F0008EE00E9413118FE00E9413118AE00E9468
:1024000013118BE00E94131188E00E94131189E0E0
:102410000E94131161E082E00E94611F60E082E08F
:102420000E949A1F61E087E00E94611F60E087E0E0
:102430000E949A1F61E086E00E94611F85E10E9470
:10244000FE1884E10E94FE1880E10E94FE1881E1DE
:102450000E94FE1882E10E94FE180E947B0B60E041
:1024600070E088EB92E00E948D0800E010E028EC1C
:1024700032E440E050E0BA0188EB92E00E94B307FA
:1024800060EA7FE088EB92E00E946507C09024013B
:10249000D0902501E0902601F090270100912001C5
:1024A00010912101209122013091230140911C01C2
:1024B00050911D0160911E0170911F0188EB92E007
:1024C0000E94B20660E070E087E792E00E948D080B
:1024D00000E010E028EC32E440E050E0BA0187E789
:1024E00092E00E94B30760EA7FE087E792E00E94F3
:1024F0006507C0901001D0901101E0901201F0909A
:10250000130100910C0110910D0120910E013091E9
:102510000F01409108015091090160910A017091E9
:102520000B0187E792E00E94B20669EA74E08EED43
:1025300093E01F910F91FF90EF90DF90CF900C945C
:102540005122CF92DF92EF92FF928091620281112D
:102550000DC00E94DA1E6093490270934A02809374
:102560004B0290934C0281E0809362020E94DA1E3B
:102570006B017C018091490290914A02A0914B022B
:10258000B0914C02C816D906EA06FB0668F0A7010E
:102590009601281B390B4A0B5B0BDA01C901843FFA
:1025A0009140A105B10590F086E00E94D01F61E046
:1025B000892B09F060E086E00E949A1FC0924902D0
:1025C000D0924A02E0924B02F0924C02FF90EF90C0
:1025D000DF90CF9008950F931F93CF93DF938B01DC
:1025E000BC018EED93E00E944422E80114E0699161
:1025F00079914AE050E08EED93E00E946B2368ED04
:1026000071E08EED93E00E944422115081F767E261
:1026100072E08EED93E0DF91CF911F910F910C94BA
:1026200063220F931F93CF93DF93EC018B0130E074
:1026300080E090E04AE0F801E30FF11D20812A30AC
:1026400099F02D3089F050ED520F5A30A0F069E228
:1026500071E08EED93E00E942122B8018EED93E0AF
:102660000E9444228881998199838883DF91CF9148
:102670001F910F910895BC01469FC001479F900D87
:102680001124C097820F911D3F5FD5CF4F925F926B
:102690006F927F928F929F92AF92BF92CF92DF9272
:1026A000EF92FF920F931F93CF93DF93EC018B0177
:1026B000912C812C412C512C30E2632E31E4732E6D
:1026C000C12CD12C7601F801E90DF11D80818A30F1
:1026D00009F45DC08D3009F45AC090ED980F9A301E
:1026E000B0F08E3281F06DEF70E08EED93E00E94DD
:1026F0002122B8018EED93E00E944422C880D98047
:10270000EA80FB8044C0882483949394DCCFA82E75
:10271000B12C882001F1B50160537109882777FD3C
:102720008095982F0E94AC25A30192010E9411254B
:102730009B01AC01C701B6010E94A9246B017C0179
:1027400020E030E040E251E4C301B2010E94602683
:102750002B013C01DACF20E030E040E251E4C70138
:10276000B6010E9460266B017C01B50160537109BE
:10277000882777FD8095982F0E94AC259B01AC019E
:10278000C701B6010E94A9246B017C01BECFC8829B
:10279000D982EA82FB82C701B601DF91CF911F91F6
:1027A0000F91FF90EF90DF90CF90BF90AF909F90F0
:1027B0008F907F906F905F904F900895AF92BF92EF
:1027C000CF92DF92EF92FF920F931F932BEE39E09F
:1027D00049EC5CE06DEB7CE085E493E00E94FE0454
:1027E00026EF39E04CE55AE060E87DE08FE393E0C6
:1027F0000E94FE0422E33DE04BE85EE06CE07AE0FC
:1028000089E393E00E94FE0421E03AE04CE95DE0B8
:102810006DE87DE083E393E00E94FE0465E473E0ED
:102820008AE293E00E941F051092B6011092B70150
:102830001092B8011092B9011092BA011092BB0126
:102840001092BC011092BD0110929201109293015E
:102850001092940110929501109296011092970196
:10286000109298011092990110926E0110926F01CE
:102870001092700110927101109272011092730106
:10288000109274011092750110924A0110924B013E
:1028900010924C0110924D0110924E0110924F0176
:1028A00010925001109251011092110310921203D4
:1028B0001092130310921403109215031092160332
:1028C0001092170310921803A0902001B0902101DC
:1028D000C0902201D0902301E0901C01F0901D01D6
:1028E00000911E0110911F011F921F92E4E2F1E07E
:1028F00083818F9382818F9381818F9380818F9346
:1029000024E131E048E151E062EB71E088EB92E0D4
:102910000E94E308A0900C01B0900D01C0900E0140
:10292000D0900F01E0900801F090090100910A0198
:1029300010910B011F921F92E0E1F1E083818F93D0
:1029400082818F9381818F9380818F9320E031E00A
:1029500044E051E06EE871E087E792E00E94E3080E
:102960008DB79EB70C960FB6F8949EBF0FBE8DBF65
:102970001F910F91FF90EF90DF90CF90BF90AF909D
:102980000895CF92DF92EF92FF920F931F93CF9310
:10299000DF9300D0CDB7DEB78EED93E00E94F91F34
:1029A000181619060CF09DC28EED93E00E941220BD
:1029B000E091480291E09E0F90934802F0E0E85CBD
:1029C000FD4F8083903118F064E874E0F1C09923E2
:1029D00009F487C2209138022E3609F4BEC0A8F44B
:1029E000273409F429C138F42A3009F48CC12D3078
:1029F00009F489C17AC1273609F406C12C3609F4D5
:102A00009FC0263609F071C1A8C0233709F448C019
:102A1000A0F4203709F450C0213709F066C181E0E5
:102A2000809328031092480260E070E088EB92E007
:102A30000E948D0861E474E03AC0253709F480C033
:102A400008F4BBC0263709F050C16EE374E08EED88
:102A500093E00E9421224AE050E060E070E08EEDB9
:102A600093E00E9420236CE374E08EED93E00E94DB
:102A700021224AE050E065ED77E08EED93E00E9480
:102A8000202363E374E08EED93E00E9421224AE06C
:102A900050E060E070E08EED93E00E94282333C1A7
:102AA00081E0809329031092480262E674E08EED83
:102AB00093E00E94512215C2913009F412C2809114
:102AC0003902823371F148F4803381F08133A9F502
:102AD0006FE971E085EE91E028C0833349F18433DA
:102AE00061F563E371E081EF91E01FC06BE274E098
:102AF0008EED93E00E9421226091C4017091C50186
:102B00004AE050E08EED93E00E946B2368ED71E0A7
:102B10008EED93E00E9444226091C2017091C30146
:102B20006CC06BE771E089EE91E00E94EB12EBC0A4
:102B300067E571E08DEE91E0F8CF66EF73E099C044
:102B40008A3019F08D3009F0CCC1E091390280ED66
:102B50008E0F8A3008F4DAC0DDC08A3019F08D306B
:102B600009F0BFC1E091390280ED8E0F8A3008F084
:102B7000F6C0F0E0E533F1050CF0F1C0EE0FFF1FF9
:102B8000E853FF4F808191812E3609F0F5C06AE34A
:102B900072E005960E94111360E873E08EED93E0F9
:102BA0000E9451220E947B0B0E94221167E473E075
:102BB0008EED93E00E945122A6C08A3019F08D302C
:102BC00009F08FC165E473E08AE293E00E94730527
:102BD0008111DAC063E373E08AE293E00E94730537
:102BE0008111D2C066E672E0E3CF67E073E08EED5C
:102BF00093E00E94212269817A814AE050E08EEDC3
:102C000093E00E9471237FC08A3019F08D3009F063
:102C100068C165E473E08AE293E00E947305811164
:102C2000EAC063E373E08AE293E00E9473058111D6
:102C3000E2C06BEB71E0BCCF913009F452C18091DE
:102C40003902813359F0823391F461EB71E08EEDFA
:102C500093E00E94212207E712E014C066EB71E0C6
:102C60008EED93E00E94212208EB12E00BC06CE78E
:102C700071E08EED93E00E9421224AE050E06091E5
:102C800039023DC001151105F1F1C8010E94530937
:102C9000AB01BC0127E030E08EED93E00E9484247C
:102CA0006AE771E08EED93E00E942122C8010E9444
:102CB0005909AB01BC0127E030E08EED93E00E94A2
:102CC000842468E771E08EED93E00E942122C80120
:102CD0000E945F09AB01BC0127E030E08EED93E07C
:102CE0000E94842466E771E063CF65E571E08EEDB4
:102CF00093E00E9421224AE050E0609138028EED7C
:102D000093E00E94542310924802EBC0F0E0E533B8
:102D1000F1051CF06AE973E024C0EE0FFF1FE853D1
:102D2000FF4F008111812C3659F468ED73E08EED70
:102D300093E00E9451226AE372E0C80101960AC042
:102D40006AEB73E08EED93E00E9451226AE372E039
:102D5000C80103960E9411130E942211D4CF67E28A
:102D600073E08EED93E00E942122609139028EED96
:102D700093E00E947522C7CF6AE372E007960E9433
:102D8000111365E673E00ACF80914802843080F128
:102D90006AE372E0CE0101960E941113809139021C
:102DA000813319F0823379F020C089819A819C01A6
:102DB000215031092E31310508F017CF9093C5010C
:102DC0008093C4010CC089819A819C0121503109F2
:102DD0002835324038F49093C3018093C2010E9499
:102DE0007B0BBACF67EE72E002CF65EC72E0E0CE0B
:102DF00061E972E0DDCE80914802853008F46EC052
:102E000080913902813349F0823351F06BE472E0F2
:102E10008EED93E00E9451225EC08CE191E002C0F1
:102E200088E091E0009709F456C020913A022936D3
:102E300059F0203731F0243669F46BE372E00896DC
:102E400006C06BE372E003C06BE372E004960E947D
:102E5000461306C063E372E08EED93E00E945122B8
:102E60000E942211C0902401D0902501E0902601FB
:102E7000F090270100912001109121012091220161
:102E80003091230140911C0150911D0160911E0160
:102E900070911F0188EB92E00E94B206C090100171
:102EA000D0901101E0901201F090130100910C01FB
:102EB00010910D0120910E0130910F0140910801F8
:102EC0005091090160910A0170910B0187E792E02E
:102ED0000E94B20618CF64E172E06ACE63EE71E040
:102EE00067CE0F900F90DF91CF911F910F91FF90C0
:102EF000EF90DF90CF900895CF92DF92EF92FF9204
:102F0000CF93DF930E94F818D82F0E94FB18C82F88
:102F10000E941C190E949A180E94E20A0E94C11481
:102F20000E94F818D813B8C00E94FB18C813B4C088
:102F30008AE293E00E94570581E090E00E94D51A52
:102F40000E94BC1B0E94750F0E94A11260919F01FC
:102F50007091A0018091A1019091A201680F791F49
:102F60007695679580E090E00E94AA256093140111
:102F700070931501809316019093170160917B0166
:102F800070917C0180917D0190917E01680F791F85
:102F90007695679580E090E00E94AA2560930001F5
:102FA00070930101809302019093030188EB92E0FA
:102FB0000E947D0587E792E00E947D050E947B0BC1
:102FC000C091C401D091C50120E030E04AE754E44B
:102FD000609118017091190180911A0190911B0163
:102FE0000E94602620E030E048E452E40E94A924D8
:102FF0000E947E25A4E6CA2ED12CE12CF12CA7013B
:1030000096010E94D726C29FC001C39F900DD29FF8
:10301000900D1124A0E0B0E08093AB019093AC013F
:10302000A093AD01B093AE01209104013091050150
:10303000409106015091070160E070E088EC92E455
:103040000E94A82420E030E04AE754E40E94602671
:1030500020E030E048E452E40E94A9240E947E254A
:10306000A70196010E94D726C29FC001C39F900D61
:10307000D29F900D1124A0E0B0E080938301909343
:103080008401A0938501B0938601DF91CF91FF90D9
:10309000EF90DF90CF9008950E94550F49CF809117
:1030A0004B0390914C03A0914D03B0914E030196B8
:1030B000A11DB11D80934B0390934C03A0934D032E
:1030C000B0934E0308951F920F920FB60F921124E2
:1030D0008F939F93AF93BF9380914F039091500331
:1030E000A0915103B09152030196A11DB11D80938F
:1030F0004F0390935003A0935103B0935203BF9199
:10310000AF919F918F910F900FBE0F901F901895C8
:10311000EDE6F0E0808180618083DA9AE8E6F0E015
:1031200080818460808341E050E06FE478E181E059
:103130000C94161ECF92DF92EF92FF920F931F9383
:103140000E94CE1E00915503109156032091570303
:10315000309158036B017C01C01AD10AE20AF30ACC
:10316000970186010436110521053105D0F16093E0
:103170005503709356038093570390935803F89424
:1031800080914F0390915003A0915103B09152034D
:1031900021E00697A105B10508F420E0209354032F
:1031A00080914B0390914C03A0914D03B0914E033D
:1031B00021E00697A105B10508F420E02093530310
:1031C00010924F0310925003109251031092520329
:1031D00010924B0310924C0310924D0310924E0329
:1031E00078941F910F91FF90EF90DF90CF9008950A
:1031F000809154030895809153030895CF93C2EFB3
:10320000C80F65EF71E08EED93E00E9444224AE022
:1032100050E06C2F8EED93E00E944D2362E072E04F
:103220008EED93E00E946322EC2FF0E0ED59FC4F0D
:1032300081E08083CF910895CF92DF92EF92FF9249
:103240000F931F93CF93DF9300D000D0CDB7DEB79D
:1032500080916103813059F138F0823009F444C023
:10326000833009F461C07AC00E94CE1E00915903D8
:1032700010915A0320915B0330915C036B017C0138
:10328000C01AD10AE20AF30A970186010531110535
:103290002105310508F462C06093590370935A0305
:1032A00080935B0390935C031092620354C08091FF
:1032B0006203E82FF0E0ED59FC4F9081992381F0F3
:1032C0008770806480937C000E94DA1E60935D03A7
:1032D00070935E0380935F039093600382E03CC031
:1032E0008F5F809362033AC020915D0330915E034B
:1032F00040915F035091600329833A834B835C8341
:103300000E94DA1E29813A814B815C810E94E91D6D
:10331000643F71408105910508F180917A008064D5
:1033200080937A0083E018C080917A0086FD16C0F1
:10333000809178003091790020916203E22FF0E0D3
:10334000EE0FFF1FE559FC4F90E0932B9183808394
:103350002F5F2093620381E0809361038091620379
:10336000883010F0109261030F900F900F900F9023
:10337000DF91CF911F910F91FF90EF90DF90CF9051
:103380000895E82FF0E0EE0FFF1FE15BFC4F808116
:1033900091810895460F571F6417750789F0FB0147
:1033A0002191BF01E92FFF27E227EE0FFF1FE05316
:1033B000FA4F25913491982F882782279327ECCFB5
:1033C0000895EF92FF920F931F93CF93DF931F9275
:1033D000CDB7DEB700E010E0EE24EA94FE2CC80181
:1033E0000E941927898341E050E0BE016F5F7F4F43
:1033F000C7010E94CA197C010F5F1F4F0E3F83E077
:10340000180769F7C7010F90DF91CF911F910F91B6
:10341000FF90EF900895EF92FF920F931F93CF9339
:10342000DF931F92CDB7DEB77C01FC0100811181D3
:10343000C80169830E9419276981681719F0C801BA
:103440000E942127C7010F90DF91CF911F910F910B
:10345000FF90EF9008950F931F93CF93DF9300D0C9
:10346000CDB7DEB78C01FC0160818EEF93E09A83CB
:103470008983CE0101960E940B1AF80161818FEFBA
:1034800093E09A838983CE0101960E940B1AC801AA
:103490000F900F90DF91CF911F910F9108950F938F
:1034A0001F93CF93DF9300D000D0CDB7DEB70E943B
:1034B000E1198C019C838B838EEF93E00E94192786
:1034C00089838FEF93E00E9419278A8389819A81EB
:1034D0000817190739F0CE0103960E942B1A82E0D3
:1034E00090E002C083E090E00F900F900F900F905B
:1034F000DF91CF911F910F910895EF92FF920F935B
:103500001F93CF93DF938B017A01E80EF91EEC0134
:10351000081B190BCE15DF0539F0C8018C0F9D1F54
:103520000E9419278993F6CF80E090E0DF91CF9138
:103530001F910F91FF90EF900895CF92DF92EF923D
:10354000FF920F931F93CF93DF9300D0CDB7DEB7D9
:103550007B016A01C80ED91E8C01E81AF90A0C1504
:103560001D0571F0F8016081C701800F911F9A83DA
:103570008983CE0101960E940B1A0F5F1F4FEFCF78
:103580000E94E1199A838983CE0101960E942B1A29
:1035900080E090E00F900F90DF91CF911F910F91FD
:1035A000FF90EF90DF90CF900895CF92DF92EF924F
:1035B000FF92CF93DF93EC018091830381110DC0C3
:1035C0000E94CE1E60937F037093800380938103DB
:1035D0009093820381E0809383030E94CE1E6B014F
:1035E0007C01209789F460937F037093800380931C
:1035F00081039093820361E087E00E949A1F83ED2C
:1036000090E0A0E0B0E050C0219709F05EC087E0F4
:103610000E94D01F40917F035091800360918103ED
:1036200070918203892B01F1C416D506E606F706D0
:1036300008F443C0D701C601841B950BA60BB70B3A
:10364000AC01BD0180917B0390917C03A0917D032F
:10365000B0917E0384179507A607B707B0F560E021
:1036600087E00E949A1F29C0C416D506E606F70611
:1036700020F1D701C601841B950BA60BB70B81382F
:103680009340A105B10508F1C0927F03D092800359
:10369000E0928103F092820361E087E00E949A1F2A
:1036A00087E690E0A0E0B0E080937B0390937C03FA
:1036B000A0937D03B0937E0308C0C0927F03D09295
:1036C0008003E0928103F0928203DF91CF91FF901B
:1036D000EF90DF90CF900895E8ECF3E080EC93E07A
:1036E000918380839093CB038093CA03F093CD039F
:1036F000E093CC031092CF031092CE03E8EBF3E0FB
:1037000080EB93E0918380839093BB038093BA0313
:10371000F093BD03E093BC031092BF031092BE036D
:10372000089590918F0320E933E0E0E0E91749F034
:103730002C5F3F4FD90114974C91481719F0EF5F58
:10374000F5CFE0E084E0E89FF0011124E057FC4F62
:1037500081E08383089590918F0324E0929FF0018C
:103760001124E057FC4F80837283618381E083835F
:103770009F5F90938F030895CF92DF92EF92FF9215
:10378000CF930E94CE1E6B017C0180918B039091A0
:103790008C03A0918D03B0918E03C816D906EA065A
:1037A000FB0608F469C0A7019601281B390B4A0BD8
:1037B0005B0B233D31054105510508F465C040917F
:1037C000BE035091BF03141615060CF5E091BA0321
:1037D000F091BB039F012F5F3F4F3093BB032093BA
:1037E000BA03C081415051095093BF034093BE03B7
:1037F0004091BC035091BD032417350731F420EBF1
:1038000033E03093BB032093BA0360E02FC0809174
:10381000CE039091CF0318161906B4F580E090E01E
:103820000E94D51AE091CA03F091CB03AF014F5F1C
:103830005F4F5093CB034093CA03C0812091CE03C6
:103840003091CF03215031093093CF032093CE0321
:103850002091CC033091CD034217530731F420EC73
:1038600033E03093CB032093CA0361E08C2F0E9496
:103870009A1F8C2F0E94911BC0928B03D0928C03B5
:10388000E0928D03F0928E03CF91FF90EF90DF9046
:10389000CF900895FF920F931F93CF93DF93F82E4D
:1038A000EB0180918F0320E933E000E0081749F035
:1038B0002C5F3F4FF901349790819F1519F00F5FEE
:1038C000F5CF00E084E0089F80011124F801E05763
:1038D000FC4FD283C18380810E94D01F21E030E061
:1038E000019711F020E030E02C173D0709F45AC091
:1038F000F801E057FC4F8381882309F453C01382F9
:10390000209751F1219709F04DC0E091C803F09143
:10391000C9039F012F5F3F4F3093C9032093C80312
:10392000F0828091CE039091CF0301969093CF03C4
:103930008093CE032091C8033091C9038091CC03BA
:103940009091CD032817390769F580EC93E09093A7
:10395000C9038093C80326C0E091B803F091B9036E
:103960009F012F5F3F4F3093B9032093B803F0823C
:103970008091BE039091BF0301969093BF03809303
:10398000BE032091B8033091B9038091BC0390919C
:10399000BD032817390731F480EB93E09093B90306
:1039A0008093B803DF91CF911F910F91FF900895FD
:1039B0000C946C1B2F923F924F925F926F927F926A
:1039C0008F929F92AF92BF92CF92DF92EF92FF922F
:1039D0000F931F93CF93DF93CDB7DEB72C970FB61E
:1039E000F894DEBF0FBECDBF0E94C119BC0180E0BC
:1039F00090E00E94AA2520E030E040EA50E40E94D6
:103A0000602620E030EC4FE754E40E9411256B0162
:103A10007C01ECE8F8E025913591459154910E94A4
:103A20000D2518161CF0E0EDF7E00EC0E4E4F9E017
:103A30002591359145915491C701B6010E945C26AC
:103A400087FD07C0E8E8F8E065917591859194914C
:103A500083C03CE8232E38E0332EA12CB12C850105
:103A6000B1016C5878404B01F10125913591459198
:103A70005491C701B6010E945C2618160CF097C03D
:103A80007FEFA71AB70AC1010496A0E3AA16B104F2
:103A900009F09DC08CC0C8018150904C880F991FBF
:103AA000880F991FDC01A457B74FFD01259135916F
:103AB00045915491FB0185909590A590B4908C010F
:103AC0000053184FF8014590559065907490F1019E
:103AD000659175918591949169837A838B839C8399
:103AE000FD0185919591A591B4918D839E83AF83BE
:103AF000B887F801659175918591949169877A8766
:103B00008B879C87C701B6010E94A8246B017C01AA
:103B1000A3019201C501B4010E94A8249B01AC013C
:103B2000C701B6010E9460266B017C012D813E8198
:103B30004F81588569817A818B819C810E94A8245C
:103B40009B01AC01C701B6010E94112529853A8568
:103B50004B855C850E94A92420E030E040E151E4DF
:103B60000E94602620E030E040EA50E40E941125E7
:103B700020E030E040E052E40E94A9242C960FB6E9
:103B8000F894DEBF0FBECDBFDF91CF911F910F9193
:103B9000FF90EF90DF90CF90BF90AF909F908F906D
:103BA0007F906F905F904F903F902F900895F1011C
:103BB0002591359145915491C701B6010E940D257B
:103BC000B4016053784F811166CFFB013DCF1C01DA
:103BD00046CF621B730B840B950B08951F920F92B7
:103BE0000FB60F9211242F933F934F935F936F93D0
:103BF0007F938F939F93AF93BF93EF93FF93E09146
:103C0000D003F091D1030995FF91EF91BF91AF914E
:103C10009F918F917F916F915F914F913F912F91E4
:103C20000F900FBE0F901F90189508958230E8F402
:103C3000E82FF0E0EE0FFF1FEA53FE4F7183608321
:103C4000813041F0809169008C7F842B80936900E2
:103C5000E89A089580916900440F551F440F551F3D
:103C6000837F842B80936900E99A08951F920F92B5
:103C70000FB60F9211242F933F934F935F936F933F
:103C80007F938F939F93AF93BF93EF93FF93E091B5
:103C9000C601F091C7010995FF91EF91BF91AF91D6
:103CA0009F918F917F916F915F914F913F912F9154
:103CB0000F900FBE0F901F9018951F920F920FB686
:103CC0000F9211242F933F934F935F936F937F93A2
:103CD0008F939F93AF93BF93EF93FF93E091C801AE
:103CE000F091C9010995FF91EF91BF91AF919F911B
:103CF0008F917F916F915F914F913F912F910F9095
:103D00000FBE0F901F9018951F920F920FB60F9233
:103D100011242F933F938F939F93AF93BF938091E1
:103D2000D6039091D703A091D803B091D9033091D5
:103D3000D50323E0230F2D3720F40196A11DB11DDB
:103D400005C026E8230F0296A11DB11D2093D503BF
:103D50008093D6039093D703A093D803B093D9034D
:103D60008091DA039091DB03A091DC03B091DD0335
:103D70000196A11DB11D8093DA039093DB03A093FC
:103D8000DC03B093DD03BF91AF919F918F913F9181
:103D90002F910F900FBE0F901F9018952FB7F8948A
:103DA0006091D6037091D7038091D8039091D90385
:103DB0002FBF08953FB7F8948091DA039091DB0309
:103DC000A091DC03B091DD0326B5A89B05C02F3F71
:103DD00019F00196A11DB11D3FBF6627782F892FCD
:103DE0009A2F620F711D811D911D42E0660F771F92
:103DF000881F991F4A95D1F70895789484B58260F9
:103E000084BD84B5816084BD85B5826085BD85B57E
:103E1000816085BDEEE6F0E0808181608083E1E82D
:103E2000F0E0108280818260808380818160808365
:103E3000E0E8F0E0808181608083E1EBF0E0808168
:103E400084608083E0EBF0E0808181608083EAE73A
:103E5000F0E08081846080838081826080838081C3
:103E6000816080838081806880831092C100089582
:103E7000833081F028F4813099F08230A1F00895E8
:103E80008730A9F08830B9F08430D1F48091800077
:103E90008F7D03C0809180008F778093800008958C
:103EA00084B58F7702C084B58F7D84BD08958091DD
:103EB000B0008F7703C08091B0008F7D8093B000F9
:103EC0000895CF93DF9390E0FC01E45AF64F2491DC
:103ED000FC01E059F64F8491882349F190E0880F66
:103EE000991FFC01E856F64FA591B4918257964F61
:103EF000FC01C591D4919FB7611108C0F8948C91D1
:103F0000209582238C93888182230AC0623051F4E9
:103F1000F8948C91322F309583238C938881822B57
:103F2000888304C0F8948C91822B8C939FBFDF917F
:103F3000CF9108950F931F93CF93DF931F92CDB727
:103F4000DEB7282F30E0F901E85BF64F8491F901E4
:103F5000E45AF64F1491F901E059F64F0491002309
:103F6000C9F0882321F069830E94381F6981E02FFE
:103F7000F0E0EE0FFF1FE257F64FA591B4919FB707
:103F8000F8948C91611103C01095812301C0812B9D
:103F90008C939FBF0F90DF91CF911F910F91089548
:103FA000CF93DF93282F30E0F901E85BF64F84913F
:103FB000F901E45AF64FD491F901E059F64FC49152
:103FC000CC2391F081110E94381FEC2FF0E0EE0F0E
:103FD000FF1FEC57F64FA591B4912C912D2381E052
:103FE00090E021F480E002C080E090E0DF91CF918A
:103FF0000895FC01818D228D90E0805C9F4F821B93
:1040000091098F7399270895FC01918D828D9817DE
:1040100031F0828DE80FF11D858D90E008958FEFCE
:104020009FEF0895FC01918D828D981761F0828D2C
:10403000DF01A80FB11D5D968C91928D9F5F9F73DC
:10404000928F90E008958FEF9FEF089586E991E2B7
:10405000892B49F080E090E0892B29F00E9496217D
:1040600081110C9400000895FC01848DDF01A80FDC
:10407000B11DA35ABF4F2C91848D90E001968F7390
:104080009927848FA689B7892C93A089B1898C91AF
:1040900080648C93938D848D981306C00288F38975
:1040A000E02D80818F7D80830895CF93DF93EC0195
:1040B000888D8823C9F0EA89FB89808185FD05C048
:1040C000A889B9898C9186FD0FC00FB607FCF5CF82
:1040D000808185FFF2CFA889B9898C9185FFEDCFCA
:1040E000CE010E943420E7CFDF91CF910895CF9287
:1040F000DF92FF920F931F93CF93DF931F92CDB761
:10410000DEB76C0181E0D60158968C9358975B9688
:104110009C915B975C968C915C97981307C0509626
:10412000ED91FC915197808185FD2EC0F601038DA4
:1041300010E00F5F1F4F0F731127F02EF601848DD3
:10414000F81211C00FB607FCF9CFD6015096ED91C9
:10415000FC915197808185FFF1CFC60169830E9450
:1041600034206981EBCF838DE80FF11DE35AFF4FB7
:104170006083D6015B960C935B975296ED91FC9110
:104180005397808180620CC0D6015696ED91FC91C8
:10419000579760835096ED91FC9151978081806490
:1041A000808381E090E00F90DF91CF911F910F917C
:1041B000FF90DF90CF900895BF92CF92DF92EF9261
:1041C000FF92CF93DF93EC016A017B01B22EE88965
:1041D000F98982E08083411581EE580761057105F8
:1041E000A1F060E079E08DE390E0A70196010E94E4
:1041F000D7262150310941095109569547953795E0
:104200002795211580E1380798F0E889F98910820F
:1042100060E874E88EE190E0A70196010E94D7263D
:1042200021503109410951095695479537952795F0
:10423000EC85FD853083EE85FF852083188EEC8923
:10424000FD89B082EA89FB89808180618083EA8967
:10425000FB89808188608083EA89FB89808180680E
:104260008083EA89FB8980818F7D8083DF91CF9174
:10427000FF90EF90DF90CF90BF9008951F920F9224
:104280000FB60F9211242F938F939F93EF93FF9369
:10429000E091EE03F091EF038081E091F403F0915F
:1042A000F50382FD12C090818091F7038F5F8F73B9
:1042B0002091F803821751F0E091F703F0E0E25209
:1042C000FC4F958F8093F70301C08081FF91EF91A0
:1042D0009F918F912F910F900FBE0F901F90189567
:1042E0001F920F920FB60F9211242F933F934F936B
:1042F0005F936F937F938F939F93AF93BF93EF934E
:10430000FF938EED93E00E943420FF91EF91BF91D7
:10431000AF919F918F917F916F915F914F913F915D
:104320002F910F900FBE0F901F9018958EED93E078
:104330000E94F91F21E0892B09F420E0822F0895C3
:104340001092E1031092E00388EE93E0A0E0B0E069
:104350008093E2039093E303A093E403B093E50317
:1043600089E192E09093DF038093DE0385EC90E097
:104370009093EB038093EA0384EC90E09093ED0339
:104380008093EC0380EC90E09093EF038093EE0336
:1043900081EC90E09093F1038093F00382EC90E045
:1043A0009093F3038093F20386EC90E09093F503EF
:1043B0008093F4031092F7031092F8031092F9031C
:1043C0001092FA030895CF92DF92EF92FF920F932B
:1043D0001F93CF93DF937C016A01EB0100E010E0B3
:1043E0000C151D0571F06991D701ED91FC910190BB
:1043F000F081E02DC7010995892B19F00F5F1F4F40
:10440000EFCFC801DF91CF911F910F91FF90EF90F7
:10441000DF90CF9008956115710581F0DB010D905B
:104420000020E9F7AD0141505109461B570BDC0153
:10443000ED91FC910280F381E02D099480E090E001
:104440000895EF92FF920F931F93CF93DF938C0108
:104450007B01C0E0D0E0F701EC0FFD1F6491662303
:1044600059F0F801A081B181ED91FC91C801099545
:10447000892B11F02196EFCFCE01DF91CF911F91C3
:104480000F91FF90EF9008950C940B22DC01ED91B9
:10449000FC910190F081E02D099465E272E00C94AA
:1044A0000B220F931F93CF93DF93EC010E942122E5
:1044B0008C01CE010E944D22800F911FDF91CF9180
:1044C0001F910F9108950F931F93CF93DF93EC01EA
:1044D0000E940B228C01CE010E944D22800F911F61
:1044E000DF91CF911F910F9108950F931F93CF9359
:1044F000DF93EC010E9446228C01CE010E944D22E6
:10450000800F911FDF91CF911F910F9108958F928E
:104510009F92AF92BF92DF92EF92FF920F931F9301
:10452000CF93DF93CDB7DEB7A1970FB6F894DEBF78
:104530000FBECDBF7C01F42FD52ECB0119A22230A6
:1045400008F42AE08E010F5D1F4F822E912CA12CC2
:10455000B12C6F2F7D2DA50194010E94D726F22F3B
:10456000D32ECA01015011096A3014F4E0E301C0EE
:10457000E7E3E60FD801EC93232B242B252B49F7F7
:10458000B801C7010E940B22A1960FB6F894DEBFB6
:104590000FBECDBFDF91CF911F910F91FF90EF9094
:1045A000DF90BF90AF909F908F900895CF92DF9251
:1045B000EF92FF920F931F93CF93DF93EC016A0169
:1045C0007B012115310579F4E881F9810190F081B1
:1045D000E02D642FDF91CF911F910F91FF90EF900D
:1045E000DF90CF9009942A303105E9F477FF1AC0A3
:1045F0006DE20E9446228C0144275527BA014C19CE
:104600005D096E097F092AE0CE010E948722800F92
:10461000911FDF91CF911F910F91FF90EF90DF904D
:10462000CF9008952AE0B701A601CE01DF91CF9186
:104630001F910F91FF90EF90DF90CF900C94872205
:104640009A01AB01662757FD6095762F0C94D62210
:104650000F931F93CF93DF93EC019A01AB01662771
:1046600057FD6095762F0E94D6228C01CE010E94C4
:104670004D22800F911FDF91CF911F910F910895CF
:104680002115310541F4DC01ED91FC910190F0819F
:10469000E02D642F09940C9487229A01462F50E054
:1046A00060E070E00C9440230F931F93CF93DF934F
:1046B000EC019A01462F50E060E070E00E94402338
:1046C0008C01CE010E944D22800F911FDF91CF916E
:1046D0001F910F9108959A01AB0160E070E00C9476
:1046E00040230F931F93CF93DF93EC019A01AB010B
:1046F00060E070E00E9440238C01CE010E944D22B8
:10470000800F911FDF91CF911F910F9108950F930B
:104710001F93CF93DF93EC010E9440238C01CE01C5
:104720000E944D22800F911FDF91CF911F910F9119
:1047300008954F925F926F927F928F929F92AF9265
:10474000BF92CF92DF92EF92FF920F931F93CF937E
:10475000DF93EC016A017B01B22E9A01AB01C70124
:10476000B6010E94C326882319F068E272E027C0D0
:1047700026013701E89477F82FEF3FEF4FE75FE727
:10478000C301B2010E94C32681110DC02FEF3FEF7C
:104790004FE75FE7C301B2010E940D2518161CF414
:1047A0006CE272E00CC02FEF3FEF4FE75FE4C70110
:1047B000B6010E945C261816ACF460E372E0CE01EC
:1047C000DF91CF911F910F91FF90EF90DF90CF90ED
:1047D000BF90AF909F908F907F906F905F904F9021
:1047E0000C940B222FEF3FEF4FE75FECC701B601B0
:1047F0000E940D2587FDE1CF20E030E0A901C7012F
:10480000B6010E940D2587FF0AC06DE2CE010E940D
:1048100046228C01F7FAF094F7F8F09402C000E019
:1048200010E0A12C60E070E080E09FE3AB1441F069
:1048300020E030E040E251E40E941125A394F6CF3D
:104840009B01AC01C701B6010E94A9246B017C0148
:104850000E947E252B013C010E94AA259B01AC01F0
:10486000C701B6010E94A8246B017C012AE0B301B4
:10487000A201CE010E948722080F191FBB2039F028
:1048800063E172E0CE010E940B22080F191F7B2CFE
:10489000772041F120E030E040E251E4C701B60169
:1048A0000E9460266B017C010E9479254B01AA249D
:1048B00097FCA094BA2C2AE030E0B501A401CE0107
:1048C0000E94D622080F191FC501B4010E94AC2511
:1048D0009B01AC01C701B6010E94A8246B017C01B9
:1048E0007A94D6CFC801DF91CF911F910F91FF909D
:1048F000EF90DF90CF90BF90AF909F908F907F9080
:104900006F905F904F9008950C9499230F931F938D
:10491000CF93DF93EC010E9499238C01CE010E947A
:104920004D22800F911FDF91CF911F910F9108951C
:1049300008950E94FD1E0E9498240E94A211C6E2C2
:10494000D0E20E947C172097E1F30E942620F9CF45
:104950005058BB27AA270ED075C166D130F06BD155
:1049600020F031F49F3F11F41EF45BC10EF4E0958A
:10497000E7FB51C1E92F77D180F3BA1762077307BC
:104980008407950718F071F49EF58FC10EF4E09539
:104990000B2EBA2FA02D0B01B90190010C01CA01F9
:1049A000A0011124FF27591B99F0593F50F4503EA4
:1049B00068F11A16F040A22F232F342F4427585F96
:1049C000F3CF469537952795A795F0405395C9F7AE
:1049D0007EF41F16BA0B620B730B840BBAF0915066
:1049E000A1F0FF0FBB1F661F771F881FC2F70EC005
:1049F000BA0F621F731F841F48F4879577956795D8
:104A0000B795F7959E3F08F0B3CF9395880F08F0C0
:104A10009927EE0F979587950895D9D008F481E0EE
:104A200008950CD00FC107D140F0FED030F021F432
:104A30005F3F19F0F0C0511139C1F3C014D198F3A0
:104A40009923C9F35523B1F3951B550BBB27AA270F
:104A500062177307840738F09F5F5F4F220F331F81
:104A6000441FAA1FA9F333D00E2E3AF0E0E830D04D
:104A700091505040E695001CCAF729D0FE2F27D050
:104A8000660F771F881FBB1F261737074807AB071E
:104A9000B0E809F0BB0B802DBF01FF2793585F4F93
:104AA0002AF09E3F510568F0B6C000C15F3FECF3AD
:104AB000983EDCF3869577956795B795F7959F5F58
:104AC000C9F7880F911D9695879597F90895E1E0AC
:104AD000660F771F881FBB1F621773078407BA070B
:104AE00020F0621B730B840BBA0BEE1F88F7E09566
:104AF000089504D06894B111D9C00895BCD088F04D
:104B00009F5790F0B92F9927B751A0F0D1F0660FB9
:104B1000771F881F991F1AF0BA95C9F712C0B130D4
:104B200081F0C3D0B1E00895C0C0672F782F8827E7
:104B3000B85F39F0B93FCCF3869577956795B39513
:104B4000D9F73EF490958095709561957F4F8F4F82
:104B50009F4F0895E89409C097FB3EF49095809587
:104B6000709561957F4F8F4F9F4F9923A9F0F92F33
:104B700096E9BB279395F695879577956795B795B1
:104B8000F111F8CFFAF4BB0F11F460FF1BC06F5F97
:104B90007F4F8F4F9F4F16C0882311F096E911C0A9
:104BA000772321F09EE8872F762F05C0662371F0CA
:104BB00096E8862F70E060E02AF09A95660F771FDE
:104BC000881FDAF7880F9695879597F90895990FBA
:104BD0000008550FAA0BE0E8FEEF16161706E807C7
:104BE000F907C0F012161306E407F50798F0621BE8
:104BF000730B840B950B39F40A2661F0232B242BBD
:104C0000252B21F408950A2609F4A140A6958FEFDB
:104C1000811D811D089597F99F6780E870E060E02D
:104C200008959FEF80EC089500240A941616170645
:104C300018060906089500240A941216130614068D
:104C400005060895092E0394000C11F4882352F0F0
:104C5000BB0F40F4BF2B11F460FF04C06F5F7F4FA8
:104C60008F4F9F4F089557FD9058440F551F59F08F
:104C70005F3F71F04795880F97FB991F61F09F3F49
:104C800079F087950895121613061406551FF2CF72
:104C90004695F1DF08C0161617061806991FF1CFC2
:104CA00086957105610508940895E894BB276627E9
:104CB0007727CB0197F908958ADF08F48FEF0895DD
:104CC0000BD0C0CFB1DF28F0B6DF18F0952309F084
:104CD000A2CFA7CF1124EACFC6DFA0F3959FD1F3CF
:104CE000950F50E0551F629FF001729FBB27F00D9A
:104CF000B11D639FAA27F00DB11DAA1F649F6627EF
:104D0000B00DA11D661F829F2227B00DA11D621F3D
:104D1000739FB00DA11D621F839FA00D611D221FF7
:104D2000749F3327A00D611D231F849F600D211DDB
:104D3000822F762F6A2F11249F5750408AF0E1F07E
:104D400088234AF0EE0FFF1FBB1F661F771F881FC7
:104D500091505040A9F79E3F510570F05CCFA6CF0F
:104D60005F3FECF3983EDCF3869577956795B795B2
:104D7000F795E7959F5FC1F7FE2B880F911D9695DC
:104D8000879597F9089523DF880B990B0895DB0128
:104D90008F939F930E940827BF91AF91A29F800D90
:104DA000911DA39F900DB29F900D11240895A1E233
:104DB0001A2EAA1BBB1BFD010DC0AA1FBB1FEE1F95
:104DC000FF1FA217B307E407F50720F0A21BB30BE0
:104DD000E40BF50B661F771F881F991F1A9469F75C
:104DE00060957095809590959B01AC01BD01CF01B8
:104DF0000895A29FB001B39FC001A39F700D811DB4
:104E00001124911DB29F700D811D1124911D0895D3
:104E10000E94F926A59F900DB49F900DA49F800D30
:104E2000911D11240895EE0FFF1F0590F491E02DC0
:104E30000994F999FECF92BD81BDF89A992780B562
:104E40000895262FF999FECF1FBA92BD81BD20BDCE
:104E50000FB6F894FA9AF99A0FBE01960895F8944D
:024E6000FFCF82
:104E620000007A4400003C423333333EC5538F3A4C
:104E7200CDCCCC3E00007A4400003C423333333E7A
:104E8200C48E913ACDCCCC3EF9029E017A015601F4
:104E92003201013F027102000031000000000000F7
:104EA2000000000000000000000000000000000000
:104EB2000000000000000158028A02330064000072
:104EC20000000000000000000000000000000000E0
:104ED20000000000000000000000014C04B0040AC1
:104EE200006400000000000000000000000000005C
:104EF200000000000000000000000000000001B0FF
:104F020004140500005A0000000000000000000028
:104F1200000000000000000000000000000000008F
:104F220000003C000400151E151E44454255472052
:104F320048580054696D653A20002C2074687265E7
:104F420073683A200055462000555220004C4620F6
:104F5200004C52200053657474696E672070696E4C
:104F6200200020666F7220413244207363616E6EAE
:104F7200696E672E00000000007720E321F91F12FE
:104F820020042055200D0A006E616E00696E6600D5
:044F92006F766600D0
:00000001FF
